:0400CE00EF4E60147D
:1000D200007510027511C7D511FDD510FAEF1F700A
:0200E200EB1E13
:0300E40080E8228F
:1000E7005389F0438901758AF7758CFFC28DD28CCD
:0500F700D2A9D2AF22E6
:0F00FC00D292D290C293C29175080A75090D2253
:0F010B00D290D293C292C291750903750A022253
:0F011A00D292D291C293C290750802750B032244
:09013500C293C291C292C2902251
:03009E001200E766
:1000A1001200608F0DE50D14600F146011146013C0
:1000B100240370141200FC80E712011A80E212017D
:0B00C1000B80DD12013580D8120135E4
:0200CC0080D3DF
:03000B0002000EE2
:10000E00C0E0C0F0C0D0758AF7758CFF050CE50C0A
:10001E0075F0E88485F00CE50CC395085004D29277
:10002E008002C292E50CC395095004D2908002C2A0
:10003E0090E50CC3950A5004D2938002C293E50C4E
:10004E00C3950B5004D2918002C291D0D0D0F0D083
:02005E00E0328E
:100060007F017E001200CE20970B20960830950568
:10007000E4F50EF50F209709309606750E00750F02
:1000800001309709209606750E00750F023097090A
:0D009000309606750E00750F03AE0EAF0F13
:01009D002240
:03000000020129D1
:0C012900787FE4F6D8FD75811102009E7D
:00000001FF
