:10086700BFC6EEA3B5E7D7D3006469616E7A696442
:10087700617361692E74616F6261004B522D35316E
:1008870020D1A7CFB0B0E52000CAC7C4FAD7EEBAC7
:0B089700C3B5C4D1A1D4F1A3A120007F
:0408C8007F057E002A
:0A08CC00EF1FAC0670011E4C601215
:1008D600E4F508E508C394FA50EC000000000508AA
:0208E60080F19F
:0108E80022ED
:10093F00C2A0D2A1D2A200000000E580339200C273
:03094F00A2A20061
:010952002282
:1009090012093F40FBC2A0C2A1C2A200008F800011
:0C091900000000D2A200000000C2A222D8
:1009250012093F40FBD2A0C2A1C2A28F80000000E5
:0A09350000D2A200000000C2A222BE
:1008A200D2A37F341209091208C87F301209091233
:1008B20008C87F0C1209091208C87F011209097FB2
:0608C200057E000208CCD7
:100800007F0A7E001208CC1208A2E4FDFF1208E95C
:10081000E4FEEE90086793FF60061209250E80F251
:10082000E4FD7F011208E9E4FEEE90087093FF609A
:10083000061209250E80F2E4FD7F021208E9E4FEAB
:10084000EE90088293FF60061209250E80F2E4FD07
:100850007F031208E9E4FEEE90089093FF60061211
:0708600009250E80F280FE65
:1008E900EF70047F808013BF01047F90800CBF02EA
:1008F900047F888005BF03027F98EF2DFF02090955
:030000000209539F
:0C095300787FE4F6D8FD758120020800D2
:00000001FF
