:0B012200C0F9A4B0999282F88090BF51
:03012D00011000BE
:0700A20075D0087F027E000B
:1000A900E4FDFCC3ED9FEC9E5015E4FBFA0BBB008D
:0F00B900010ABA07F8BB23F50DBD00010C80E466
:0100C8002215
:0B000600D2A8D288D2AAD28AD2AF22A0
:030003000200C92F
:1000C900C0E0C0D01200A2E510D3940A4003751015
:0F00D9000005107F1E7E001200A9D0D0D0E032AB
:03001300020106E1
:10010600C0E0C0D01200A2E510700375100A1510E9
:0C0116007F1E7E001200A9D0D0D0E03285
:1000E800120006C2A3C2A2C2A1C2A0E51075F00AFE
:0E00F80084E5F090012293F5801200A580EDC2
:03000000020016E5
:0C001600787FE4F6D8FD75811002005DD3
:100022000200E8E493A3F8E493A34003F68001F20C
:1000320008DFF48029E493A3F85407240CC8C333DF
:10004200C4540F4420C8834004F456800146F6DFAE
:10005200E4800B010204081020408090012DE47E10
:10006200019360BCA3FF543F30E509541FFEE493A3
:10007200A360010ECF54C025E060A840B8E493A36A
:10008200FAE493A3F8E493A3C8C582C8CAC583CA95
:10009200F0A3C8C582C8CAC583CADFE9DEE780BE4D
:0101300000CE
:00000001FF
