:03000000020026D5
:0C002600787FE4F6D8FD75811002006DB3
:0E013800C0F9A4B0999282F88090FEFDFBF70A
:0D012A0008090000000000000000010800AE
:10000300E4FDEDC39FE49E500CE4FC0CECD394940C
:0500130040F90D80ED35
:0100180022C5
:030023000200B226
:0B00B200C0E0C0D075D000C000C00747
:1000BD00C2AF309818E59924D0FF74092508F8A629
:0F00CD0007C2980508E508B40403750800D2AF10
:0900DC00D007D000D0D0D0E032F2
:10011400758920E4F587759850758DFD758BFDD232
:060124008ED2ACD2AF2226
:1000E500E4FB7F64FE12000312011475A0F074098D
:1000F5002BF8E690013893F580EB90014293F5A03B
:0F0105000B7F017E00120003BB04E3E4FB80DFED
:100032000200E5E493A3F8E493A34003F68001F2FF
:1000420008DFF48029E493A3F85407240CC8C333CF
:10005200C4540F4420C8834004F456800146F6DF9E
:10006200E4800B010204081020408090012AE47E03
:10007200019360BCA3FF543F30E509541FFEE49393
:10008200A360010ECF54C025E060A840B8E493A35A
:10009200FAE493A3F8E493A3C8C582C8CAC583CA85
:1000A200F0A3C8C582C8CAC583CADFE9DEE780BE3D
:0101370000C7
:00000001FF
