:0405B5000229000017
:1004A90012057C1200037FD07E0712056312031820
:1004B9008F2E8E2D8D2C8C2BE4FFFE7D207C41AB65
:1004C9002EAA2DA92CA82B1201B4500D7527007541
:1004D90028037F207E4E1205631203188F2E8E2D5E
:1004E9008D2C8C2BE4FFFE7DA07C41AB2EAA2DA97F
:1004F9002CA82B1201B460B540B3752700752801EB
:090509007FA07E0F12056380A49F
:03000B00020512D9
:10051200C0E0C0F0C0D075D000C000C004C005C0AB
:1005220006C007758A33758CFE052AE52A70020516
:1005320029AE29FF7C007D281202B58C298D2AC3A1
:10054200E52A9528E52995275004D2A28002C2A265
:10055200D007D006D005D004D000D0D0D0F0D0E063
:010562003266
:10057C005389F0438901758A33758CFEC28DD28CF8
:05058C00D2A9D2AF224C
:04056300EF4E6014E3
:10056700007525027526C7D526FDD525FAEF1F701C
:02057700EB1E79
:0305790080E822F5
:0F05A500EF4E600B7D02DDFEEF1F70F41E80F144
:0105B4002224
:1005910053890F438910E4F58DF58BC28FC28EC24A
:0405A100ABD2AF2208
:07000300C290D291020591A9
:10031800E4F520D2907F027E001205A5C2903091AC
:10032800FDE4F58DF58BD28E2091FDC28EAF8DEF59
:10033800FEAD8B7C00E42DFFEC3EFEE52025E0249D
:1003480008F8A60608A6077F507E00120563052058
:10035800E520C3940A40BCE4F520E52004FFEFC380
:10036800940A5042EF25E02408F8E6FC08E6FDE58B
:100378002025E02408F8E6FA08E6FBD39DEA9C402D
:1003880022EF25E02408F8E6FC08E6FDE52025E054
:100398002408F8A60408A605EF25E02408F8A60214
:1003A80008A6030F80B80520E520B409ADE4F51FC1
:1003B800F51EF51DF51C752002E52025E02408F83A
:1003C800E6FE08E6FFE4FCFDE51F2FF51FE51E3EEF
:1003D800F51EED351DF51DEC351CF51C0520E52039
:1003E800B408D6AF1FAE1EAD1DAC1CE412022DE43E
:1003F800FBFA79C078401201178F248E238D228C46
:10040800217F967E437D8B7C3CAB24AA23A922A81E
:040418002112000E9F
:01041C0022BD
:10000E00EC4D6011E8497017ED33EC3304600DE4EC
:10001E00FCFFFEFD22E933E8330470F80202A01261
:10002E00026B58046009E4CC248150062850090262
:10003E0002AA2840030202A7C0E0EB4A7044B9802E
:10004E0006D0E0FB020296EF4E701CBD8008EBFF5F
:10005E00EAFEE9FD80EBE98DF0A4FEE5F00200F783
:10006E00E9CDF9EAFEEBFFEF89F0A4FCE5F0CE89CD
:10007E00F0A42EFFE435F0CD89F0A42DFEE435F08A
:10008E008067EF4E7005BD80D780C3EF8BF0A4ACB8
:10009E00F0EE8BF0A42CFCE435F0F8EF8AF0A42CF3
:1000AE00E5F038FCE433CB8DF0A42CFCE5F03BF806
:1000BE00EE8AF0A42CFCE5F038F8E433CF89F0A4F6
:1000CE002CFCE5F038CF3400CE89F0A42FFFE5F0FC
:1000DE003EFEE433C98DF0A42EFEE5F039CD8AF054
:1000EE00A42FFFE5F03EFEE43DFD33D0E0FB5007CC
:1000FE000BBB000F0202AAEC2CFCEF33FFEE33FE1B
:06010E00ED33FD02028248
:100114000202AAEC5D046005E8590470030202A01F
:1001240012026B580460F6EC4860F2EC7004FDFEB9
:10013400FF22C860DB2481C85009C39860025006BE
:100144000202A79850CAF582E9294B4A7005AB828E
:1001540002029675F0007C1A7880C3EF9BEE9AED4C
:1001640099400DC3EF9BFFEE9AFEED99FDE842F036
:10017400DC23ACF0D0E0FFD0E0FED0E0FDAB822089
:10018400E7101BEB60BAEC2CFCEF33FFEE33FEED13
:1001940033FD020282E803F830E705C0F075F00091
:1001A400EF2FFFEE33FEED33FD40B830E7C280AAF7
:1001B40074F8CC6480CCC86480C8F58204604FC3F2
:1001C400EB9FF5F0EA9E42F0E99D42F0E89C45F091
:1001D400603C501DE5825FFFE582D313CB5BCBF41B
:1001E4002B5582FB50280ABA002409B90020088044
:1001F4001DE5825BFBE582D313CF5FCFF4C3132FDE
:100204005582FF50090EBE00050DBD00010CC3EB65
:100214009FF5F0EA9E42F0E99D42F0E89C45F060CB
:0902240007CC4820E701B3EC22ED
:10022D0075F020800E75F010800575F0087D007E4C
:10023D00007F003392D530D50312030AEC33401002
:10024D00EF33FFEE33FEED33FDEC33FCD5F0ED2255
:0E025D00E5F0247EA2D513CC92E7CDCEFF2291
:10026B00E9D2E7C933E833F892D5EDD2E7CD33ECD9
:07027B0033FC5002B2D52252
:10028200EC30E7100FBF000C0EBE00080DBD0004DD
:100292000BEB6014A2D5EB13FCED92E7FD2274FF89
:1002A200FCFDFEFF22E480F8A2D574FF13FC7D80E2
:0302B200E480EFF6
:0300000002041DDA
:0C041D00787FE4F6D8FD75812E0204649F
:1002B500BC000BBE0029EF8DF084FFADF022E4CC2D
:1002C500F875F008EF2FFFEE33FEEC33FCEE9DECF6
:1002D500984005FCEE9DFE0FD5F0E9E4CEFD22ED3C
:1002E500F8F5F0EE8420D21CFEADF075F008EF2F86
:1002F500FFED33FD4007985006D5F0F222C398FD77
:050305000FD5F0EA2213
:0E030A00C3E49FFFE49EFEE49DFDE49CFC2204
:100429000204A9E493A3F8E493A34003F68001F23C
:1004390008DFF48029E493A3F85407240CC8C333D4
:10044900C4540F4420C8834004F456800146F6DFA3
:10045900E4800B01020408102040809005B5E47E79
:10046900019360BCA3FF543F30E509541FFEE49398
:10047900A360010ECF54C025E060A840B8E493A35F
:10048900FAE493A3F8E493A3C8C582C8CAC583CA8A
:10049900F0A3C8C582C8CAC583CADFE9DEE780BE42
:0105B9000041
:00000001FF
