:04015800EF4E6014F2
:10015C00007515027516C7D516FDD515FAEF1F706B
:02016C00EB1E88
:03016E0080E82204
:10009A00E4F51720B5137F14FE12015830B5FD7F21
:1000AA00147E0012015875170120B4147F147E00C3
:1000BA0012015830B4FD7F147E00120158751702E0
:0200CA00AF176E
:0100CC002211
:100171005389F0438901758AA4758CFFC28DD28C95
:07018100D2A9D2AFC2B922DE
:1000CD00120171E4F5148514127F0A7E0012015895
:1000DD000514E514C3946440EDE4F514E514D394CC
:1000ED000040E08514127F0A7E001201581514801D
:0100FD00EB17
:03000B0002012DC2
:10012D00C0E0C0F0C0D0758AA4758CFF0513E5132F
:10013D0075F0648485F013E513C395125004D2A0B5
:0B014D008002C2A0D0D0D0F0D0E03281
:0C0188000A08C0F9A4B0999282F8809097
:1000FE00EF24FE600E14600F1460102403700EC205
:10010E00A0800AC2A18006C2A28002C2A374082DDA
:0F011E00F8E6F5807F017E00120158E4F580229B
:0300000002000EED
:0C000E00787FE4F6D8FD758117020055DC
:10001A000200CDE493A3F8E493A34003F68001F22F
:10002A0008DFF48029E493A3F85407240CC8C333E7
:10003A00C4540F4420C8834004F456800146F6DFB6
:10004A00E4800B0102040810204080900188E47EBD
:10005A00019360BCA3FF543F30E509541FFEE493AB
:10006A00A360010ECF54C025E060A840B8E493A372
:10007A00FAE493A3F8E493A3C8C582C8CAC583CA9D
:10008A00F0A3C8C582C8CAC583CADFE9DEE780BE55
:01019400006A
:00000001FF
