:0406C700EF4E60147E
:1006CB00007526027527C7D527FDD526FAEF1F70B3
:0206DB00EB1E14
:0306DD0080E82290
:0D0748001206537FCC1206E07F440206E04B
:1005E6001206537FCC1206E07FBE1206E012068E7C
:1005F6008F0812068EEFFEE508FFFDAC06EC120230
:0B06060038E4FBFA7980784112010C07
:0106110022C6
:06073900C2A18F80D2A2D4
:08073F007F027EEFDEFEDFFC0D
:01074700228F
:0A076100C2A0120739C2A202073F2E
:10063500CFCDCFCECCCE1203317C007D0A12033153
:04064500ED2430FF71
:0A064900D2A0120739C2A202073F37
:1006F900AE07BE0104ED148006BE0209ED243F4495
:0607090080FF12076122CF
:100725007F381207617F0C1207617F061207617F10
:040735000102076155
:0A076B00AC031206F9AF04020649C0
:060612008B088A09890A29
:100618001206F9E4FDAB08AA09A90A8D82758300C0
:0C0628001202F2FF60061206490D80E984
:0106340022A3
:0C05B3007F0AEA24FFFDE434FFFC7E0018
:0805BF008E0D8F0E8C0F8D10C4
:1005C7007F017E00E4FBEBC39510E50F6480F874B0
:0E05D7008098500AAC0DAD0E12031F0B80E889
:0105E50022F3
:040671008A0A8B0B5B
:100675001206F9AA0CEAD39400400D1205B3AC0A90
:08068500AD0B1206351A80EDE1
:01068D00224A
:100508001206F9C3EA64809480400B7F2B120649D7
:100518008A168B17800E7F2D120649C3E49BF517A8
:10052800E49AF516AA15EAD39400400D1205B3AC67
:0905380016AD171206351A80ED0C
:010541002297
:040542008A1A8B1B6B
:100546001206F9AA1CEAD3940040297F101205B5B9
:10055600AC1AAD1BCFCDCFCECCCE120331EF540F9C
:10056600FEC3940AEE5004243080022437FF12069C
:04057600491A80D1CD
:01057A00225E
:04057B008A1F8B2028
:10057F001206F9AA21EAD394004028EA24FFFDE4E9
:10058F0034FFFC7F027E001205BFAC1FAD20CFCD24
:10059F00CFCECCCE120331EF54012430FF120649D7
:0305AF001A80D2DD
:0105B2002226
:10065300C2AFD2A6C2A67FE3DFFED2A67F1DDFFE16
:0D066300A2A6E433FE7FE3DFFED2AFAF06B8
:010670002267
:10070F00C2AFC2A67E02DEFEEF24FF92A67E14DEEB
:05071F00FED2A6D2AFDE
:0107240022B2
:1006AB00C2AFC2A67F01DFFED2A67F01DFFEA2A6EC
:0B06BB00E433FE7F14DFFED2AFAF0679
:0106C6002211
:0206E000AD0764
:1006E200E4FC7401A804088002C333D8FC5DFF1245
:0606F200070F0CBC08EC30
:0106F80022DF
:10068E00E4FDFC1206ABEF600D7401A804088002B5
:0C069E00C333D8FC42050CBC08E9AF05D2
:0106AA00222D
:0507750054656D3A001F
:100462001207257BFF7A0779757D017F011206123B
:100472001207481205E68F258E248D238C22E4FF75
:10048200FEFDFCAB25AA24A923A8221201A9501E15
:100492007B2D7D017F0212076BAF25AE24AD23AC0D
:1004A200221202228F258E248D238C2280097B2BFF
:1004B2007D017F0212076BAF25AE24AD23AC221261
:1004C2000271AB07AA06750C037D027F0212067148
:1004D2007B2E7D057F0212076B7F007E407D1C7C98
:1004E20046AB25AA24A923A822120003120271E412
:1004F2007B107A27F9F81203C2750C047D067F027D
:06050200120671020472F2
:10000300EC4D6011E8497017ED33EC3304600DE4F7
:10001300FCFFFEFD22E933E8330470F80202DD122F
:1000230002A858046009E4CC248150062850090230
:1000330002E72840030202E4C0E0EB4A7044B980BF
:1000430006D0E0FB0202D3EF4E701CBD8008EBFF2D
:10005300EAFEE9FD80EBE98DF0A4FEE5F00200EC99
:10006300E9CDF9EAFEEBFFEF89F0A4FCE5F0CE89D8
:10007300F0A42EFFE435F0CD89F0A42DFEE435F095
:100083008067EF4E7005BD80D780C3EF8BF0A4ACC3
:10009300F0EE8BF0A42CFCE435F0F8EF8AF0A42CFE
:1000A300E5F038FCE433CB8DF0A42CFCE5F03BF811
:1000B300EE8AF0A42CFCE5F038F8E433CF89F0A401
:1000C3002CFCE5F038CF3400CE89F0A42FFFE5F007
:1000D3003EFEE433C98DF0A42EFEE5F039CD8AF05F
:1000E300A42FFFE5F03EFEE43DFD33D0E0FB5007D7
:1000F3000BBB000F0202E7EC2CFCEF33FFEE33FEE9
:06010300ED33FD0202BF16
:100109000202E7EC5D046005E8590470030202DDB0
:100119001202A8580460F6EC4860F2EC7004FDFE87
:10012900FF22C860DB2481C85009C39860025006C9
:100139000202E49850CAF582E9294B4A7005AB825C
:100149000202D375F0007C1A7880C3EF9BEE9AED1A
:1001590099400DC3EF9BFFEE9AFEED99FDE842F041
:10016900DC23ACF0D0E0FFD0E0FED0E0FDAB822094
:10017900E7101BEB60BAEC2CFCEF33FFEE33FEED1E
:1001890033FD0202BFE803F830E705C0F075F0005F
:10019900EF2FFFEE33FEED33FD40B830E7C280AA02
:1001A90074F8CC6480CCC86480C8F58204604FC3FD
:1001B900EB9FF5F0EA9E42F0E99D42F0E89C45F09C
:1001C900603C501DE5825FFFE582D313CB5BCBF426
:1001D9002B5582FB50280ABA002409B9002008804F
:1001E9001DE5825BFBE582D313CF5FCFF4C3132FE9
:1001F9005582FF50090EBE00050DBD00010CC3EB71
:100209009FF5F0EA9E42F0E99D42F0E89C45F060D6
:0902190007CC4820E701B3EC22F8
:10022200ED33EC33600A047003BD8004ECB2E7FCEA
:0102320022A9
:1002330075F020800E75F010800575F0087D007E46
:10024300007F003392D530D503120454EC334010B1
:10025300EF33FFEE33FEED33FDEC33FCD5F0ED224F
:0E026300E5F0247EA2D513CC92E7CDCEFF228B
:10027100EDD2E7CD33EC3392D524814006E4FFFE85
:10028100FDFC22FCE4CFCECDCC24E0501174FF80E4
:10029100EDC3CC13CCCD13CDCE13CECF13CF047081
:0702A100F030D5DE02045429
:1002A800E9D2E7C933E833F892D5EDD2E7CD33EC9C
:0702B80033FC5002B2D52215
:1002BF00EC30E7100FBF000C0EBE00080DBD0004A0
:1002CF000BEB6014A2D5EB13FCED92E7FD2274FF4C
:1002DF00FCFDFEFF22E480F8A2D574FF13FC7D80A5
:0302EF00E480EFB9
:030000000207559F
:0C075500787FE4F6D8FD7581270204626D
:1002F200BB010CE58229F582E5833AF583E02250C1
:1003020006E92582F8E622BBFE06E92582F8E2220A
:0D031200E58229F582E5833AF583E4932224
:10031F00EF8DF0A4A8F0CF8CF0A428CE8DF0A42EF2
:02032F00FE22AC
:10033100BC000BBE0029EF8DF084FFADF022E4CCB0
:10034100F875F008EF2FFFEE33FEEC33FCEE9DEC79
:10035100984005FCEE9DFE0FD5F0E9E4CEFD22EDBF
:10036100F8F5F0EE8420D21CFEADF075F008EF2F09
:10037100FFED33FD4007985006D5F0F222C398FDFA
:050381000FD5F0EA2297
:1003860075F008758200EF2FFFEE33FECD33CDCC2E
:1003960033CCC58233C5829BED9AEC99E5829840B1
:1003A6000CF582EE9BFEED9AFDEC99FC0FD5F0D68E
:1003B600E4CEFBE4CDFAE4CCF9A88222B800C1B9B8
:1003C6000059BA002DEC8BF084CFCECDFCE5F0CBF6
:1003D600F97818EF2FFFEE33FEED33FDEC33FCEB2F
:1003E60033FB10D703994004EB99FB0FD8E5E4F9EA
:1003F600FA227818EF2FFFEE33FEED33FDEC33FCD7
:10040600C933C910D7059BE99A4007EC9BFCE99ACA
:10041600F90FD8E0E4C9FAE4CCFB2275F010EF2F0F
:10042600FFEE33FEED33FDCC33CCC833C810D7070F
:100436009BEC9AE899400AED9BFDEC9AFCE899F84A
:0E0446000FD5F0DAE4CDFBE4CCFAE4C8F922DD
:0E045400C3E49FFFE49EFEE49DFDE49CFC22B9
:00000001FF
