:10018C00C0F9A4B0999282F88090BFFEFDFBF704F1
:03019C000506074E
:06000300010800010900E4
:10017800E4FEEEC39F500CE4FD0DEDD3949440F9DA
:030188000E80EFF7
:01018B002251
:0F019F0075890175A882758C4CE4F58AD28C2283
:03000B0002015D92
:10015D00C0E0C0D0758C4C758A000508E508B40464
:0B016D00050509750800D0D0D0E03275
:10012500E4FBFA12019FEB2509FFE433FE7C007D19
:100135000412009A748C2DF58274013CF583E493C6
:10014500F580EA90019793F5A07F021201780A0BDA
:08015500BA04D3E4FAFB80CEEA
:0300000002000EED
:0C000E00787FE4F6D8FD758109020055EA
:10009A00C2D5EC30E709B2D5E4C39DFDE49CFCEE81
:1000AA0030E715B2D5E4C39FFFE49EFE1200D0C329
:1000BA00E49DFDE49CFC80031200D030D507C3E424
:0600CA009FFFE49EFE22F0
:10001A00020125E493A3F8E493A34003F68001F2D6
:10002A0008DFF48029E493A3F85407240CC8C333E7
:10003A00C4540F4420C8834004F456800146F6DFB6
:10004A00E4800B0102040810204080900003E47E43
:10005A00019360BCA3FF543F30E509541FFEE493AB
:10006A00A360010ECF54C025E060A840B8E493A372
:10007A00FAE493A3F8E493A3C8C582C8CAC583CA9D
:10008A00F0A3C8C582C8CAC583CADFE9DEE780BE55
:0100090000F6
:1000D000BC000BBE0029EF8DF084FFADF022E4CC14
:1000E000F875F008EF2FFFEE33FEEC33FCEE9DECDD
:1000F000984005FCEE9DFE0FD5F0E9E4CEFD22ED23
:10010000F8F5F0EE8420D21CFEADF075F008EF2F6C
:10011000FFED33FD4007985006D5F0F222C398FD5D
:050120000FD5F0EA22FA
:00000001FF
