:04015A00EF4E6014F0
:10015E00007516027517C7D517FDD516FAEF1F7065
:02016E00EB1E86
:0301700080E82202
:10008F0020B5147F147E0012015A30B5FD7F147E07
:10009F000012015A75120120B4147F147E00120150
:1000AF005A30B4FD7F147E0012015A75120220B32C
:1000BF00147F147E0012015A30B3FD7F147E00129C
:1000CF00015A75120320B2147F147E0012015A30A8
:0E00DF00B2FD7F147E0012015A751204AF129A
:0100ED0022F0
:0C0173000A08C0F9A4B0999282F88090AC
:10011600EF24FE600E14600F1460102403700EC2EC
:10012600A0800AC2A18006C2A28002C2A374082DC2
:05013600F8E6F580224F
:10013B00E4FD7F0412011612008F8F18E51860F78B
:0F014B00FD7F041201167F647E001200EE80E833
:0400EE008E128F13CC
:1000F200C3E5159464E51494005013B2A57F017E04
:100102000012015A0515E51570E6051480E2E4F5C2
:0301120014F515CC
:0101150022C7
:03000000020003F8
:0C000300787FE4F6D8FD75811A02004AEF
:10000F0002013BE493A3F8E493A34003F68001F2CB
:10001F0008DFF48029E493A3F85407240CC8C333F2
:10002F00C4540F4420C8834004F456800146F6DFC1
:10003F00E4800B0102040810204080900173E47EDD
:10004F00019360BCA3FF543F30E509541FFEE493B6
:10005F00A360010ECF54C025E060A840B8E493A37D
:10006F00FAE493A3F8E493A3C8C582C8CAC583CAA8
:10007F00F0A3C8C582C8CAC583CADFE9DEE780BE60
:01017F00007F
:00000001FF
