:0200D000C1006D
:10000300758920E4F587759850758DFD758BFDD244
:060013008ED2ACD2AF2238
:090019008F992099030080FA225E
:0F00B2001200033000FDAF08120019C20080F4E5
:030023000200C117
:0F00C100C2AF309807859908C298D200D2AF32EB
:03000000020026D5
:0C002600787FE4F6D8FD75812002006DA3
:100032000200B2E493A3F8E493A34003F68001F232
:1000420008DFF48029E493A3F85407240CC8C333CF
:10005200C4540F4420C8834004F456800146F6DF9E
:10006200E4800B01020408102040809000D0E47E5E
:10007200019360BCA3FF543F30E509541FFEE49393
:10008200A360010ECF54C025E060A840B8E493A35A
:10009200FAE493A3F8E493A3C8C582C8CAC583CA85
:1000A200F0A3C8C582C8CAC583CADFE9DEE780BE3D
:0100D200002D
:00000001FF
