:04006D00EF4E6014DE
:10007100007508027509C7D509FDD508FAEF1F708B
:02008100EB1E74
:0300830080E822F0
:1000030043878075985053890F438920758BF47506
:0B0013008DF4C2ABD28ED2AFD2AC2273
:080092008F993099FDC29922FB
:05001E0012000380FE4A
:03002300020026B2
:10002600C0E0C0F0C083C082C0D075D000C000C0A0
:1000360001C002C003C004C005C006C00730980C4A
:10004600E599F4F590AF99120092C298D007D006C0
:10005600D005D004D003D002D001D000D0D0D082B9
:07006600D083D0F0D0E0329E
:0300000002008675
:0C008600787FE4F6D8FD75810902001EA9
:00000001FF
