:03000000020148B2
:0C014800787FE4F6D8FD75811D020026CA
:10000300E4FDFCC3ED9FEC9E5015E4FBFA0BBB0033
:0F001300010ABA07F8BB23F50DBD00010C80E40C
:0100220022BB
:1000AA00E4FFFEE4FDFC0DBD00010CED64034C70A1
:0C00BA00F50FBF00010EEF640B4E70E765
:0100C6002217
:100128008F80C2A0C2A1C2A21200AAD2A20200AAB3
:100138008F80D2A0C2A1C2A21200AAD2A20200AA93
:1000C7007F011201287F381201287F0C1201287F37
:0900D700061201287FD002012865
:0200E000AE0769
:1000E200BE01027A80BE02027AC0EA2D14FAFF1221
:0700F2000128AF03020138F1
:10008100BF0103751D80BF0203751DC0E51D2D1441
:10009100F51DFF1201281200F9FF600C12013874DE
:0800A1000129F9E43AFA80EEAE
:0100A9002234
:0300230002005781
:10005700C0E0C0D075D000C000C2AF30981374089C
:100067002518F8A699C2980518E518B4100375184D
:0A00770000D2AFD000D0D0D0E032AC
:10011200758920E4F587759850758DFD758BFDD234
:060122008ED2ACD2AF2228
:10002600E4F51CF91200C77F647E0012000312017A
:1000360012751900751A00751B08AB19AA1AA91BA7
:100046007D017F01120081E4F97F64FE12000380C6
:01005600E0C9
:1000F900BB010689828A83E0225002E722BBFE0205
:09010900E32289828A83E4932237
:00000001FF
