:0602C400C2A18F80D2A24E
:0802CA007F027EEFDEFEDFFC87
:0102D2002209
:0A02D300C2A01202C4C2A20202CAB5
:10024600CFCDCFCECCCE1200427C007D0A1200422A
:04025600ED2430FF64
:0A025A00D2A01202C4C2A20202CA1E
:10029A00AE07BE0104ED148006BE0209ED243F44F8
:0602AA0080FF1202D322C6
:1002B0007F381202D37F0C1202D37F061202D37F43
:0402C000010202D362
:0A02DD00AC0312029AAF0402025AA9
:060201008B228A238924F0
:1002070012029AE4FDAB22AA23A9248D82758300EA
:0C021700120003FF600612025A0D80E97D
:0102230022B8
:0C01CE007F0AEA24FFFDE434FFFC7E0001
:0801DA008E0D8F0E8C0F8D10AD
:1001E2007F017E00E4FBEBC39510E50F6480F87499
:0E01F2008098500AAC0DAD0E1200300B80E864
:0102000022DB
:040264008A0A8B0B6C
:1002680012029AAA0CEAD39400400D1201CEAC0AED
:08027800AD0B1202461A80EDE5
:01028000225B
:1001230012029AC3EA64809480400B7F2B12025A16
:100133008A168B17800E7F2D12025AC3E49BF51784
:10014300E49AF516AA15EAD39400400D1201CEAC39
:0901530016AD171202461A80EDE8
:01015C002280
:04015D008A1A8B1B54
:1001610012029AAA1CEAD3940040297F101201D0EE
:10017100AC1AAD1BCFCDCFCECCCE120042EF540F77
:10018100FEC3940AEE5004243080022437FF120289
:040191005A1A80D1A5
:010195002247
:040196008A1F8B2011
:10019A0012029AAA21EAD394004028EA24FFFDE435
:1001AA0034FFFC7F027E001201DAAC1FAD20CFCDF6
:1001BA00CFCECCCE120042EF54012430FF12025AA5
:0301CA001A80D2C6
:0101CD00220F
:0402E70002250000EC
:100224001202B00526E526700205257FE87E03123A
:100234000281750C03AB26AA257D017F011202649D
:0202440080E157
:04028100EF4E6014C8
:10028500007508027509C7D509FDD508FAEF1F7075
:02029500EB1E5E
:0302970080E822DA
:0300000002009764
:0C009700787FE4F6D8FD7581260200DEBB
:10000300BB010CE58229F582E5833AF583E02250B2
:1000130006E92582F8E622BBFE06E92582F8E222FC
:0D002300E58229F582E5833AF583E4932216
:10003000EF8DF0A4A8F0CF8CF0A428CE8DF0A42EE4
:02004000FE229E
:10004200BC000BBE0029EF8DF084FFADF022E4CCA2
:10005200F875F008EF2FFFEE33FEEC33FCEE9DEC6B
:10006200984005FCEE9DFE0FD5F0E9E4CEFD22EDB1
:10007200F8F5F0EE8420D21CFEADF075F008EF2FFB
:10008200FFED33FD4007985006D5F0F222C398FDEC
:050092000FD5F0EA2289
:1000A300020224E493A3F8E493A34003F68001F24D
:1000B30008DFF48029E493A3F85407240CC8C3335E
:1000C300C4540F4420C8834004F456800146F6DF2D
:1000D300E4800B01020408102040809002E7E47ED4
:1000E300019360BCA3FF543F30E509541FFEE49322
:1000F300A360010ECF54C025E060A840B8E493A3E9
:10010300FAE493A3F8E493A3C8C582C8CAC583CA13
:10011300F0A3C8C582C8CAC583CADFE9DEE780BECB
:0102EB000012
:00000001FF
