:0403D100EF4E601477
:1003D50000750902750AC7D50AFDD509FAEF1F7020
:0203E500EB1E0D
:0303E70080E82289
:1001760020B5147F147E001203D130B5FD7F147EA6
:10018600001203D175080120B4147F147E001203F7
:10019600D130B4FD7F147E001203D175080220B35E
:1001A600147F147E001203D130B3FD7F147E00123B
:1001B60003D175080320B2147F147E001203D130D8
:1001C600B2FD7F147E001203D1750804AF08E4F572
:0101D6000820
:0101D7002205
:06041400C2A18F80D2A2FC
:08041A007F027EEFDEFEDFFC35
:0104220022B7
:0A043B00C2A0120414C2A202041AA7
:10037800CFCDCFCECCCE1201217C007D0A12012137
:04038800ED2430FF31
:0A038C00D2A0120414C2A202041A47
:1003EA00AE07BE0104ED148006BE0209ED243F44A7
:0603FA0080FF12043B220B
:100400007F3812043B7F0C12043B7F0612043B7FB3
:040410000102043BA6
:0A044500AC031203EAAF0402038CBB
:060333008B088A09890A0B
:100339001203EAE4FDAB08AA09A90A8D82758300B4
:0C0349001200E2FF600612038C0D80E938
:010355002285
:0C0283007F0AEA24FFFDE434FFFC7E004B
:08028F008E0D8F0E8C0F8D10F7
:100297007F017E00E4FBEBC39510E50F6480F874E3
:0E02A7008098500AAC0DAD0E12010F0B80E8CE
:0102B5002226
:0403B4008A0A8B0B1B
:1003B8001203EAAA0CEAD39400400D120283AC0A95
:0803C800AD0B1203781A80ED61
:0103D000220A
:1001D8001203EAC3EA64809480400B7F2B12038CDD
:1001E8008A168B17800E7F2D12038CC3E49BF5179C
:1001F800E49AF516AA15EAD39400400D120283ACCE
:0902080016AD171203781A80EDFF
:0102110022CA
:040212008A1A8B1B9E
:100216001203EAAA1CEAD3940040297F1012028531
:10022600AC1AAD1BCFCDCFCECCCE120121EF540FE1
:10023600FEC3940AEE5004243080022437FF1203D2
:040246008C1A80D1BD
:01024A002291
:04024B008A1F8B205B
:10024F001203EAAA21EAD394004028EA24FFFDE42E
:10025F0034FFFC7F027E0012028FAC1FAD20CFCD8A
:10026F00CFCECCCE120121EF54012430FF12038CDC
:03027F001A80D210
:010282002259
:100356005772697465204F4B0020202020202020F2
:10036600200052656164204F4B0020202020202071
:02037600200065
:10000300120400750C05AB23AA227D017F011203A4
:10001300B41201768F24E524B401150523E523707A
:10002300020522750C05FBAA227D017F011203B490
:10003300E524B40216E523152370021522750C0579
:10004300AB23AA227D017F011203B4E5246403706C
:1000530040FCAD23FF12030F7F057E001203D1E5A1
:1000630022FD7C007F0112030F7F057E001203D166
:100073007BFF7A0379567D017F021203337FE87E8B
:10008300031203D17BFF7A03795F7D017F021203A1
:1000930033E52464046003020014FF1202B67522E0
:1000A300008F237F011202B6EFFEEE4222750C058C
:1000B300AB23AA227D017F011203B47BFF7A03796C
:1000C300687D017F021203337FE87E031203D17B35
:0F00D300FF7A0379707D017F021203330200145C
:10030F008F088C098D0A1204597FA01202E612047D
:10031F0023AF081202E6120423AF0A1202E61204F8
:04032F00230204623F
:0202B6008F08AF
:1002B8001204597FA01202E6120423AF081202E6C4
:1002C8001204231204597FA11202E6120423120415
:0D02D800238F097F0112044F120462AF0949
:0102E50022F6
:09045900D2A0D2A1C2A0C2A122CE
:07046200C2A0D2A1D2A0222A
:0202E600AD0762
:1002E800E4FB74807E00A803088006CEA2E713CE44
:1002F80013D8F8FFEDF582EF558224FF92A0D2A122
:06030800C2A10BBB08DCE2
:01030E0022CC
:10039600E4FFD2A0FED2A130A00D7480A80608808A
:0D03A60002C313D8FC4207C2A10EBE08E836
:0103B3002227
:0A044F00EF24FF92A0D2A1C2A12267
:0B042300D2A0D2A1A2A0E433FFC2A12E
:01042E0022AB
:0300000002042FC8
:0C042F00787FE4F6D8FD758125020003FB
:1000E200BB010CE58229F582E5833AF583E02250D3
:1000F20006E92582F8E622BBFE06E92582F8E2221D
:0D010200E58229F582E5833AF583E4932236
:10010F00EF8DF0A4A8F0CF8CF0A428CE8DF0A42E04
:02011F00FE22BE
:10012100BC000BBE0029EF8DF084FFADF022E4CCC2
:10013100F875F008EF2FFFEE33FEEC33FCEE9DEC8B
:10014100984005FCEE9DFE0FD5F0E9E4CEFD22EDD1
:10015100F8F5F0EE8420D21CFEADF075F008EF2F1B
:10016100FFED33FD4007985006D5F0F222C398FD0C
:050171000FD5F0EA22A9
:00000001FF
