:100A4D0000C000F900A400B000990092008200F8E7
:040A5D000080009085
:0C0A61000A0800002E00000000DF430A1D
:0B0A6E00EF1FAC0670011E4C70F6225A
:1009F500E4FDFCC3ED9FEC9E5015E4FBFA0BBB0038
:0F0A0500010AEB64644A70F50DBD00010C80E43A
:010A140022BF
:1009CD00E4FDD2A67F08FE120A6EC2A67F507E00FD
:1009DD00120A6ED2A67F0E7E00120A6EA2A6E43314
:0809ED00FD7F147E00020A6E7A
:100A1500E4FB7D08C2A6EBC313FBD2A630A60343B5
:0D0A250003807F047E00120A6EDDE9AF033E
:010A320022A1
:020A3300AD070D
:100A35007B08C2A6ED1392A67F027E00120A6ED233
:070A4500A6EDC313FDDBEB7E
:010A4C002287
:10088C00E4FAFBFFFE1209CD7FCC120A337F44122F
:10089C000A331209CD7FCC120A337FBE120A3312EF
:1008AC000A15AA07120A15AB07EAC4540FFD7C00FF
:1008BC00EB75F010A42DFFEC35F0FE7D0A120978D3
:1008CC008F08EAC4540FFD7C00AF03EF75F010A441
:1008DC002DFFEC35F0FE7D0A1209788D09EA540FD4
:1008EC00FF7E03EF75F00AA4FFC4540FFD74082EAD
:0A08FC00F8A60553070F0EBE07E92A
:0109060022CE
:10090700E4F9E50825E0244DF582E4340AF583741B
:100917000193F580C2A07F057E001209F5D2A0E5FC
:100927000925E0244DF582E4340AF58374019354D4
:100937007FF580C2A11209F5D2A1E50B25E0244D70
:10094700F582E4340AF583740193F580C2A2120993
:10095700F5D2A2E50C25E0244DF582E4340AF583AF
:10096700740193F580C2A31209F5D2A309B9339292
:01097700225D
:0B0A79001209CD12088C12090780F84A
:03000000020800F3
:0C080000787FE4F6D8FD758111020847EE
:10097800BC000BBE0029EF8DF084FFADF022E4CC63
:10098800F875F008EF2FFFEE33FEEC33FCEE9DEC2C
:10099800984005FCEE9DFE0FD5F0E9E4CEFD22ED72
:1009A800F8F5F0EE8420D21CFEADF075F008EF2FBC
:1009B800FFED33FD4007985006D5F0F222C398FDAD
:0509C8000FD5F0EA224A
:10080C00020A79E493A3F8E493A34003F68001F27F
:10081C0008DFF48029E493A3F85407240CC8C333ED
:10082C00C4540F4420C8834004F456800146F6DFBC
:10083C00E4800B0102040810204080900A61E47EE1
:10084C00019360BCA3FF543F30E509541FFEE493B1
:10085C00A360010ECF54C025E060A840B8E493A378
:10086C00FAE493A3F8E493A3C8C582C8CAC583CAA3
:10087C00F0A3C8C582C8CAC583CADFE9DEE780BE5B
:010A6D000088
:00000001FF
