:0C00E7000A08C0F9A4B0999282F8809039
:0400CE00EF4E60147D
:1000D200007512027513C7D513FDD512FAEF1F7002
:0200E200EB1E13
:0300E40080E8228F
:10008F00EF24FE600E14600F1460102403700EC274
:10009F00A0800AC2A18006C2A28002C2A374082D4A
:0500AF00F8E6F58022D7
:1000B400E4F514F515E4FD7F0112008F0F12008F93
:0A00C4000F12008F0F12008F80EB67
:03000000020003F8
:0C000300787FE4F6D8FD75811502004AF4
:10000F000200B4E493A3F8E493A34003F68001F253
:10001F0008DFF48029E493A3F85407240CC8C333F2
:10002F00C4540F4420C8834004F456800146F6DFC1
:10003F00E4800B01020408102040809000E7E47E6A
:10004F00019360BCA3FF543F30E509541FFEE493B6
:10005F00A360010ECF54C025E060A840B8E493A37D
:10006F00FAE493A3F8E493A3C8C582C8CAC583CAA8
:10007F00F0A3C8C582C8CAC583CADFE9DEE780BE60
:0100F300000C
:00000001FF
