:10195200C7EBC4E3CAE4C8EBC1BDB8F658BACD5967
:0E1962000A0025662C2566007A3D25660A00DF
:1018A100759850758920758DFD758BFDD299D28EF5
:1018B1007BFF7A197952120EF1753200753300757A
:1018C10034237535007536007537277BFF7A197912
:1018D10064121380E4F522AC22E4120AA87BDA7ABE
:1018E1000F794978401208F8E4FBFAF97843120AB3
:1018F100011216ABE4FBFAF978441208F8E4FBFA9A
:10190100F978441208078F2E8E2D8D2C8C2B7BFF9E
:101911007A19796A8F358E348D338C32120EF10536
:0A19210022E522C394FF40AF808648
:10080000020B11E86480F8E933E83360110460F00A
:10081000ED33EC337009E8FCE9FDEAFEEBFF22045E
:1008200060DED3EB9FEA9EE99DE8C2E78CF0C2F759
:1008300095F0400CE8CCF8E9CDF9EACEFAEBCFFB25
:10084000120ADC85D0F05804700320D5B3E8047098
:10085000075002B2D5020B1B92D5EC0460F7E4CC32
:10086000C0E0C398F8603B94186008400DD0E0FBEE
:10087000020AF3E4FBFAC9FC8028E830E406E4C984
:10088000FBE4CAFCE830E305E4C9CACBFCE8540742
:100890006010F8C3E913F9EA13FAEB13FBEC13FC4D
:1008A000D8F130F52FC3E49CFCEF9BFFEE9AFEEDF0
:1008B00099FDD0E0FBEF4E4D4C701222DB03020B92
:1008C00018EC2CFCEF33FFEE33FEED33FDED30E79B
:1008D000EB020AF3EF2BFFEE3AFEED39FDD0E0FB21
:1008E00050130BBB0003020B1BED13FDEE13FEEFC9
:0808F00013FFEC13FC020AF3F4
:1008F800EC4D6011E8497017ED33EC3304600DE4FA
:10090800FCFFFEFD22E933E8330470F8020B1112F4
:100918000ADC58046009E4CC2481500628500902F6
:100928000B1B284003020B18C0E0EB4A7044B98047
:1009380006D0E0FB020B07EF4E701CBD8008EBFFF2
:10094800EAFEE9FD80EBE98DF0A4FEE5F00209E19D
:10095800E9CDF9EAFEEBFFEF89F0A4FCE5F0CE89DA
:10096800F0A42EFFE435F0CD89F0A42DFEE435F097
:100978008067EF4E7005BD80D780C3EF8BF0A4ACC5
:10098800F0EE8BF0A42CFCE435F0F8EF8AF0A42C00
:10099800E5F038FCE433CB8DF0A42CFCE5F03BF813
:1009A800EE8AF0A42CFCE5F038F8E433CF89F0A403
:1009B8002CFCE5F038CF3400CE89F0A42FFFE5F009
:1009C8003EFEE433C98DF0A42EFEE5F039CD8AF061
:1009D800A42FFFE5F03EFEE43DFD33D0E0FB5007D9
:1009E8000BBB000F020B1BEC2CFCEF33FFEE33FEAE
:0609F800ED33FD020AF3DD
:1009FE00020B1BEC5D046005E859047003020B1139
:100A0E00120ADC580460F6EC4860F2EC7004FDFE4D
:100A1E00FF22C860DB2481C85009C39860025006CB
:100A2E00020B189850CAF582E9294B4A7005AB8221
:100A3E00020B0775F0007C1A7880C3EF9BEE9AEDDF
:100A4E0099400DC3EF9BFFEE9AFEED99FDE842F043
:100A5E00DC23ACF0D0E0FFD0E0FED0E0FDAB822096
:100A6E00E7101BEB60BAEC2CFCEF33FFEE33FEED20
:100A7E0033FD020AF3E803F830E705C0F075F00025
:100A8E00EF2FFFEE33FEED33FD40B830E7C280AA04
:100A9E0075F020800E75F010800575F0087D007ED3
:100AAE00007F003392D530D503120DD4EC334010B5
:100ABE00EF33FFEE33FEED33FDEC33FCD5F0ED22DC
:0E0ACE00E5F0247EA2D513CC92E7CDCEFF2218
:100E8F00E5462432F8E6054622782F3007027832FD
:100E9F00E475F001120E25020D5D2000EB7F2ED2BE
:100EAF00008018EF540F2490D43440D4FF30040B3B
:100EBF00EF24BFB41A0050032461FFE54760021509
:100ECF0047054AE54A7002054930070D782FE4754A
:100EDF00F001120E25EF020DA302192B7403D20796
:100EEF008003E4C207F5468B2F8A308931E4F5473A
:100EFF00F549F54AE54760077F20120ECA80F57560
:100F0F0048FFC201C200C202C203C205C206C20824
:100F1F00120E98FF700D3007057F00120EDBAF4ADF
:100F2F00AE4922B4255FC2D5C204120E98FF24D059
:100F3F00B40A00501A75F00A784730D50508B6FF85
:100F4F000106C6A426F620D5047002D20380D92448
:100F5F00CFB41A00EF5004C2E5D2040211C8D20177
:100F6F0080C6D20080C0D20280BCD2D580BAD20552
:100F7F0080B47F20120ECA2002077401B5470040CB
:100F8F00F1120E8FFF120ECA020F03D208D2068083
:100F9F0095120E8FFB120E8FFA120E8FF94A4B70AD
:100FAF000679BF7A127BFF20022EE547602A7E006A
:100FBF008E82758300120D7660060EEE654870F016
:100FCF00C2D5EBC0E0EAC0E0E9C0E0EE121228D0D3
:100FDF00E0F9D0E0FAD0E0FB120D5DFF60AAEBC0A4
:100FEF00E0EAC0E0E9C0E0120ECAD0E02401F9D077
:100FFF00E03400FAD0E0FBE5480460DCD548D98046
:10100F0087D20280A212120B60F7E548700104121A
:10101F000B5DA948600DE548600914F5481212B23E
:10102F00EF60F3EA30E702F404C3995077EAF4254E
:10103F00480430E701E404F548800D12120B60C13B
:10104F00EA05482548120B5DEA7845F630E701E4DA
:10105F00254804D5480420050114121228E4C0E0E5
:10106F001212B27845E6601320E70714F6120EB29B
:10107F00802204F6D0E014C0E07F00120EB2E548E3
:10108F006007120EA91548800B300503120EA9D068
:10109F00E0020F03D0E00480C512120B60A0E548F8
:1010AF0004120B5D7845EAF6E5482005026001045D
:0510BF002404121228B8
:1010C40074FF04C0E01212B2120EB2E54820050209
:1010D4006003120EA9D0E0B548E87F45120EBC7833
:1010E40045E67F2B30E7047F2DF404C0E0120ECADE
:1010F400D0E075F00A84C0F0120EB3D0E0120EB343
:10110400020F03791080027908C206C2088008D24F
:10111400D5790A8004790AC2D5E548047002F548F5
:10112400E4FAFDFEFF120E8FFC7B08200113120E61
:101134008FFD7B1030000A120E8FFE120E8FFF7B84
:1011440020EC3382D592D55013C3E43000069FFFC0
:10115400E49EFEE42001039DFDE49CFCE4CBF8C284
:1011640001EC700CCFCECDCCE824F8F870F38017E6
:10117400C3EF33FFEE33FEED33FDEC33FCEB33FB17
:10118400994002FB0FD8E9EB300105F8D0E0C448E0
:10119400B201C0E00AEC4D4E4F78207B0070C2EAE9
:1011A400B5480040BCC0E012122AD0F0D0E02001C3
:1011B40004C4C0E0C4B201C0F0120EB3D0F0D5F044
:1011C400EB020F03120E450FA0531107580F714C79
:1011D4000F6D42110B4F1113441113490F86431124
:1011E4001955104A4610A84510144712DF500F75C0
:1011F4002D0F792E0F9C2B0F7D230F9A2012C82AB6
:101204000F354800000F94E548B4FF0375480612F3
:101214000E8FFC120E8FFD120E8FFE120E8FFF78B2
:101224003E020B8C790AA2D5200314300509B910AB
:10123400020404B9080104A2D520060250010420C6
:1012440002689202B547005034C0E07F2030031991
:101254007F30A20272067205500F121281C202C2BE
:1012640006C205C2087F30800F300503E9C0E012D2
:101274000ECA300503D0E0F9D0E0B547CC300517ED
:101284007F30B9100C120ECA7F583004077F788063
:1012940003B90803120ECA3002057F2D020ECA7F5D
:1012A400202008F87F2B2006F322920280CF7F00B3
:1012B400B407005005243EF8E6FF22286E756C6CD6
:1012C4002900D201120E8F3001F8C201784730D5BF
:1012D4000108F6020F352D50434958120E8F24038E
:1012E400B405004001E49012DA93120EBB743A1272
:0A12F4000EBBD20375470402110778
:1012FE00E54430030104F823282432F822782F30F5
:10130E0003027832E475F001120E25020D5D60ECD9
:10131E00C5487002154714C548200304FF0219AAD8
:10132E00782F74FFF5F0020E35FF021970E5456057
:10133E0006D545037F002220030F121983EF6008A4
:10134E000548E5487002054722782F120E1C120D33
:10135E005DFF60E9782FE475F001120E2580DE1234
:10136E001345EFC0E0121337D0E040F380A0D20354
:10137E008002C2038B2F8A308931E4F546F544F59D
:10138E0047F548754500C202C200C201C2041213DD
:10139E000BFF7005AF467E0022B4253012130BFFF3
:1013AE0024D0B40A00500C75F00AC545A42545F5A5
:1013BE004580E924CFB41A00EF5002C2E502161997
:1013CE00D20180D8D20080D4D20480D0EF1213374D
:1013DE00500812136DEF600E80A9EFC0E012134596
:1013EE00D0E06F609EEF607412131C80A71213453D
:1013FE00EF6069E545700705458003121345EF6000
:10140E001420040E1212FEE475F001120E25EF12D6
:10141E000DA3D545E62004040544054680BA1213F3
:10142E003BEFC0E0121337D0E0500412131CE4FF60
:10143E0020040E1212FEE475F001120E25EF120DAD
:10144E00A3EF70DA20040405440546808BE5456061
:10145E0002054512136D12133BEF70C6300304E400
:10146E0012131CE54660030213A27EFF7FFF22E5E6
:10147E00456002054512136DD206D20512133BEFDD
:10148E0030060260D7C0E012131CD0E0AC49AD4A62
:10149E00AE4BAF4C1217CE8C498D4A8E4B8F4C50A3
:1014AE0007121345C20580D42004102005020546FC
:0814BE001212FE120E1C05447F
:1014C600120DE2021391D0E0809A7900800A791019
:1014D600800679088002790AD205E545600205454D
:1014E600E9C0E012136DEF60DD121345BF2D04D283
:1014F600028003BF2B0912136DEF60CA12133BD093
:10150600E0B40A028033B40802802EBF302770028E
:101516007408C205C0E012133BD0E0BF7802800316
:10152600BF58160545D545028007D54504D2058026
:101536000B741080197002740ABF000AEFF8E4FCFD
:10154600FDFEFF0215CCC0E0EF12131CD0E0F9E45B
:10155600FCFDFEFFE9C0E0ECC0E0EDC0E0EEC0E05F
:10156600EFC0E012133BEFF8D0E0FFD0E0FED0E092
:10157600FDD0E0FCD0F0E8604DB461004007B47BDC
:10158600005002C2E524D0503DFA24F6500724F953
:101596005034240AFAEAB5F000502BCFA9F0A42F54
:1015A600FF92D5E9C5F0CEA4A2D53EFE92D5E9C5F7
:1015B600F0CDA4A2D53DFD92D5E9C5F0CCA4A2D527
:1015C6003CFCC205808EE8C0E020042A2005080500
:1015D60046300203120DD41212FE120E1C054420D0
:1015E600000B20010DEE8FF0120DB58009120DE2F1
:1015F6008004EF120DA3D0E012131C0213912004F5
:10160600101212FE120E1C0544E5478548F0120D15
:10161600B580E8120E45145B5314D45813D24C13FC
:10162600CE4213AA4814D84F14DC4413FB4314D0FB
:101636004914DC55147D46147D45147D4713D62A7E
:0716460016044E000013DA48
:10164D003A70FA83BCAAE9E43E81E0F8BF9DE9E671
:10165D003F80000039283C1ABB9969663DA335E3EC
:10166D00BF255DE73FC90FDB418DDBCCC44936EEAD
:10167D0045C9913FC5B0F83D3F800000C317F53413
:10168D00452FFA73C60AFDDD12173C04A2E1920044
:10169D001420E01590164D7404120C8F802612172D
:1016AD003C30E102B20020E0EB8C2F8D308E318F7B
:1016BD00329016617404120C8FA82FA930AA31AB89
:1016CD00321208F8ED4C6007300004EC6480FC2207
:1016DD0012173CC0E08C2F8D308E318F32901685D5
:1016ED007403120C8FA82FA930AA31AB321208F84F
:1016FD00ECC52FFCEDC530FDEEC531FEEFC532FF5B
:10170D009016757403120C8FD082A82FA930AA31B0
:10171D00AB32E58230E007120A01B20080A6EFCBB2
:10172D00FFEECAFEEDC9FDECC8FC120A018095ED75
:10173D0033EC547FCC33920024605007D0E0D0E0DE
:10174D00020B117B837AF97922783E1208F8EDF9B4
:10175D0033ECF83324815011EFFBEEFA120B261205
:10176D000A9EECB2E7FC120807ED33EC33602F2430
:10177D0003F8C313FCED92E7FDE82481E4501FEC60
:10178D00F8EDF9EEFAEFFB120B26EF04C2E0FCF5D3
:10179D0082120AA8ECB2E7FC120807E58203FAED03
:0E17AD0033EC3360071413FCED92E7FDEA22E3
:100ADC00E9D2E7C933E833F892D5EDD2E7CD33EC60
:070AEC0033FC5002B2D522D9
:100AF300EC30E7100FBF000C0EBE00080DBD000464
:100B03000BEB6014A2D5EB13FCED92E7FD2274FF0F
:100B1300FCFDFEFF22E480F8A2D574FF13FC7D8068
:030B2300E480EF7C
:100B2600EDD2E7CD33EC3392D524814006E4FFFEC7
:100B3600FDFC22FCE4CFCECDCC24E0501174FF8026
:100B4600EDC3CC13CCCD13CDCE13CECF13CF0470C3
:070B5600F030D5DE020DD4E2
:100B5D00F920E72824F950037907E4F42402FB185F
:100B6D00DBFDE624FB5014E9600DE4F618E604F60F
:0F0B7D00B40A08E4F6D9F57401F60A22C2D522AB
:100B8C00ED33EC3392D5FA602AB4FF33EDC2E77B38
:100B9C00FF60067A0B79B1E4227A0B79BA20D5047E
:100BAC007A0B79B5224E614E002B494E46002D49E9
:100BBC004E4600E47A08F608DAFC7B00740722E85B
:100BCC00C0E0ECC0E0EDC0E0EEC0E0EFC0E0EA75E4
:100BDC00F010A4CAABF075F04DA42BFBE435F0FC7F
:100BEC00EA2410FAEB34C5FBEC34D9FCEDC2E7FF78
:100BFC0075F056A4F42411C5F0F434C58FF0A42A72
:100C0C00E5F03BE43CF620E714120D1DD0E0FFD0DC
:100C1C00E0FED0E0FDD0E0FC120A018014F40412D6
:100C2C000D1DD0E0FFD0E0FED0E0FDD0E0FC1208BE
:100C3C00F8D0E0F8E6FAEDD2E7CD33EC332482FBC2
:100C4C00E4C3CF33CFCE33CECD33CD33DBF37B0701
:100C5C0075F00A846004F6081B0AE5F0F6088FF0BC
:100C6C00740AA4FFACF08EF0740AA42CFEACF05005
:100C7C00010C8DF0740AA42CFDE435F0F608DBDED3
:030C8C00740722C8
:1017BB00C207C208C209C20AF9E4F54DF54EFCFD99
:1017CB00FEFFE91006EA20090CB42D04D209D3223E
:1017DB00B42B02D32224D0504794095041240A3011
:1017EB000A15F8854EF0740AA42872E74051C5F02B
:1017FB00704D85F04ED322D208C0E0E4FBFA79207D
:10180B0078411208F8ECF8EDF9EEFAEFFBD0E0FCBA
:10181B00E4120AA81208073007B4154DD322240A84
:10182B00200A20B4FE0720071AD207D32224EB602C
:10183B000424E0700EA2099207D20AC209D322C374
:10184B00020B11E4300A0BE54E300902F404A20737
:10185B0092093008EA254D20D2E5A2E7920A500200
:10186B00F404B4260050D8CCC0E0EDC0E0EEC0E0EC
:10187B00EFC0E0EC120D1DD0E0FFD0E0FED0E0FD9C
:10188B00D0E0FC200A051208F88003120A01300987
:06189B0003120CDCC32265
:100C8F00C0E0EFFBEEFAEDF9ECF81208F8D0E0F562
:100C9F00F0EFFBEEFAEDF9ECF8120DFCA3A3A3A312
:100CAF00E8C0E0E9C0E0EAC0E0EBC0E0C0F0120845
:100CBF00F8120E0CA3A3A3A3120807D0F0D0E0FBE9
:0D0CCF00D0E0FAD0E0F9D0E0F8D5F0D42262
:100CDC00ED33EC33600A047003BD8004ECB2E7FC26
:010CEC0022E5
:100CED003F8000004120000042C80000447A00000F
:100CFD00461C400047C35000497424004B18968091
:100D0D004CBEBC205A0E1BCA6753C21C749DC5AE87
:100D1D00FB60065407601C2323120D4BEB54386007
:100D2D0009120D37120D461208F8ECF8EDF9EEFA2E
:100D3D00EFCB22EB120D4680F1543803241C900C9E
:100D4D00EDFE93FC0EEE93FD0EEE930ECE93FF2271
:030000000219944E
:0C199400787FE4F6D8FD75814E0218A1A2
:100D5D00BB010689828A83E0225002E722BBFE0294
:090D6D00E32289828A83E49322C7
:100D7600BB010CE58229F582E5833AF583E0225032
:100D860006E92582F8E622BBFE06E92582F8E2227C
:0D0D9600E58229F582E5833AF583E4932296
:100DA300BB010689828A83F0225002F722BBFE012F
:020DB300F32229
:100DB500BB010A89828A83F0E5F0A3F0225006F789
:0F0DC50009A7F01922BBFE06F3E5F009F3192286
:0E0DD400C3E49FFFE49EFEE49DFDE49CFC2230
:100DE200BB010789828A83020E775005E9F8020E59
:0A0DF2006BBBFE05E9F8020E832238
:100DFC00E493FC740193FD740293FE740393FF223D
:100E0C00E493F8740193F9740293FA740393FB223C
:090E1C00E6FB08E6FA08E6F922FB
:100E2500FAE6FB0808E6F925F0F618E6CA3AF622CE
:100E3500FAE6FB0808E625F0F9F618E63AFAF6228E
:100E4500D083D082F8E4937012740193700DA3A33C
:100E550093F8740193F5828883E473740293686050
:060E6500EFA3A3A380DF50
:10192B00EFB40A07740D121936740A309811A8997E
:10193B00B8130CC2983098FDA899C298B811F6301C
:07194B0099FDC299F59922F4
:10198300100B0B1219A0BF0D027F0A02192BAF080F
:011993002231
:0519AA008F08D20B22A2
:10197000EFC394094005EF940E4003BF2003D380CA
:0319800001C3227E
:0C0E6B00ECF608EDF608EEF608EFF622B3
:0C0E7700ECF0A3EDF0A3EEF0A3EFF022EE
:0C0E8300ECF208EDF208EEF208EFF222AB
:0A19A0003098FDAF99C2987E002236
:00000001FF
