:0D007E00EFD3940040077E7DDEFE1F80F36F
:01008B002252
:0F006F0075890175A882758CFE758A33D28C2233
:03000B00020044AC
:10004400C0E0C0F0C0D0758CFE758A33E508C39556
:10005400095004D2A78002C2A70508E50875F02854
:0B0064008485F008D0D0D0F0D0E0324E
:10000E0020A4187F0A12007E20A4100509E4F5082A
:10001E00E509B4060375090530A4FD20A5177F0A6E
:10002E0012007E20A50F1509E4F508E50970037589
:06003E00090130A5FD22BE
:0E008C00750901E4F50812006F12000E80FBEA
:0300000002009A61
:0C009A00787FE4F6D8FD75810902008C27
:00000001FF
