:10023D00546869732069732061207465737421009B
:10002600897B41542B5253540D0A008E4841542B60
:1000360043574D4F44453D310D0A00A025564154C6
:100046002B43574A41503D224D4552435552595F25
:1000560043314437222C2231323334353637382275
:100066000D0A00A0291F41542B43495053544152B5
:10007600543D22544350222C223139322E31363807
:100086002E302E313131222C383030300D0A008F8F
:100096001041542B4349504D4F44453D310D0A0004
:0F00A6008D0341542B43495053454E440D0A00DE
:10022800EF1FAC0670011E4C600A7D027CC7DCFE25
:04023800DDFC80EC7D
:01023C00229F
:1000030053877F75985053890F758920758BFD75BC
:0B0013008DFDC2ABD28ED2ACD2AF226A
:1001DC00E2FB0808E2F92401F218E2FA3400F21208
:0301EC0001F7FF19
:0801EF00C2998F993099FD229D
:100210007800EBF208EAF208E9F2AF051DEF60079B
:0802200078001201DC80F322DA
:1001BB007884EBF208EAF208E9F27884E2FB08E2D1
:1001CB00FA08E2F91201F7600778841201DC80EA81
:0101DB002201
:100142007FDC7E051202287BFE7A0079481201BB11
:100152007F647E001202287BFE7A0079561201BB70
:100162007FD07E071202287BFE7A00791F1201BB24
:100172007FD07E071202287BFE7A0079101201BB23
:100182007F647E001202287BFE7A0079031201BB93
:070192007F647E00020228D9
:100199001200031201427BFF7A02793D1201BB7FF3
:1001A9000D1201EF7F0A1201EF7FF47E011202287E
:0201B90080E4E0
:0300230002024D89
:06024D00309802C2983255
:030000000200B645
:0C00B600787FE4F6D8FD7581070200FD9C
:1001F700BB010689828A83E0225002E722BBFE0206
:09020700E32289828A83E4932238
:1000C200020199E493A3F8E493A34003F68001F2BA
:1000D20008DFF48029E493A3F85407240CC8C3333F
:1000E200C4540F4420C8834004F456800146F6DF0E
:1000F200E4800B0102040810204080900026E47E78
:10010200019360BCA3FF543F30E509541FFEE49302
:10011200A360010ECF54C025E060A840B8E493A3C9
:10012200FAE493A3F8E493A3C8C582C8CAC583CAF4
:10013200F0A3C8C582C8CAC583CADFE9DEE780BEAC
:0100B500004A
:00000001FF
