:10024D00C0F9A4B0999282F880908883C6A1868E59
:0D026B000211000001130001140001080041
:0D025D00EFD3940040077E7DDEFE1F80F38E
:01026A002271
:10000600438910E4F58DF58BD2ABD28ED288D2A877
:03001600D2AF2244
:03001B0002027965
:07027900758D00758B00324A
:0300030002001EDA
:10001E00C0E0C0D075D000C000C004C005C006C08E
:10002E0007AF8DEFFEAD8B7C00E42DF512EC3EF5A7
:10003E0011758D00758B00E513701ED3E51294E0DB
:10004E00E511942E4010E5129468E5119442500685
:10005E007513010200EB0200E8E5136401707BD317
:10006E00E51294AAE51194054026E51294B8E5111F
:10007E00940B501CE514131313541FFF2409F8C0DE
:10008E0000E625E0D000F674092FF8E64401802F33
:10009E00D3E51294BCE51194024027E51294AAE52B
:1000AE00119405501DE514131313541FFF2409F862
:1000BE00C000E625E0D000F674092FF8E654FEF6EF
:1000CE000514E514C394204014751400751300E54F
:1000DE000CF4B50B087508018003751300D007D01A
:0C00EE0006D005D004D000D0D0D0E03205
:0302800002000673
:100186001201D890024D93F580C2A07F0512025D40
:10019600D2A09000011201F190024D93F580C2A108
:1001A6007F0512025DD2A19000021201F190024D6C
:1001B60093F580C2A27F0512025DD2A290000312BF
:1001C60001F190024D93F580C2A37F0512025DD224
:0201D600A32262
:10021E00120280E508601DE4F508E50BC4540FF5E5
:10022E000DE50B540FF50EE50CC4540FF50FE50C50
:0F023E00540FF5107B007A00790D12018680D4E1
:030000000200FA01
:0C00FA00787FE4F6D8FD75811402014106
:1001D800BB010689828A83E0225002E722BBFE0225
:0901E800E32289828A83E4932258
:1001F100BB010CE58229F582E5833AF583E02250C3
:1002010006E92582F8E622BBFE06E92582F8E2220C
:0D021100E58229F582E5833AF583E4932226
:1001060002021EE493A3F8E493A34003F68001F2EF
:1001160008DFF48029E493A3F85407240CC8C333FA
:10012600C4540F4420C8834004F456800146F6DFC9
:10013600E4800B010204081020408090026BE47EEC
:10014600019360BCA3FF543F30E509541FFEE493BE
:10015600A360010ECF54C025E060A840B8E493A385
:10016600FAE493A3F8E493A3C8C582C8CAC583CAB0
:10017600F0A3C8C582C8CAC583CADFE9DEE780BE68
:010278000085
:00000001FF
